:100000000C9462000C948A000C948A000C948A0070
:100010000C948A000C948A000C948A000C948A0038
:100020000C948A000C948A000C948A000C948A0028
:100030000C948A000C948A000C948A000C948A0018
:100040000C9479030C948A000C9447030C942103BC
:100050000C948A000C948A000C948A000C948A00F8
:100060000C948A000C948A000000000024002700F1
:100070002A0000000000250028002B0000000000DE
:1000800023002600290004040404040404040202DA
:100090000202020203030303030301020408102007
:1000A0004080010204081020010204081020000012
:1000B0000008000201000003040700000000000027
:1000C0000000850511241FBECFEFD8E0DEBFCDBFF5
:1000D00022E0AEE5B1E001C01D92AE30B207E1F71B
:1000E00011E0A0E0B1E0ECEEFBE002C005900D9263
:1000F000AE35B107D9F710E0C2E6D0E004C02197D1
:10010000FE010E94EE05C136D107C9F70E94C30364
:100110000C94F4050C940000AF92BF92CF92DF9242
:10012000EF92FF920F931F93CF93DF936C017B01AC
:100130008B01040F151FEB015E01AE18BF08C0173D
:10014000D10759F06991D601ED91FC910190F081B0
:10015000E02DC6010995892B79F7C501DF91CF9173
:100160001F910F91FF90EF90DF90CF90BF90AF90D5
:100170000895FC01538D448D252F30E0842F90E0AD
:10018000821B930B541710F0CF9608950197089592
:10019000FC01918D828D981761F0A28DAE0FBF2F5B
:1001A000B11D5D968C91928D9F5F9F73928F90E0B1
:1001B00008958FEF9FEF0895FC01918D828D981720
:1001C00031F0828DE80FF11D858D90E008958FEF5D
:1001D0009FEF08952FB7F89480916D0190916E0173
:1001E000A0916F01B09170012FBF8093790190931E
:1001F0007A01A0937B01B0937C0181E791E00E949A
:10020000DC0097FF26C02FB7F89480916D01909184
:100210006E01A0916F01B09170012FBF40917901E3
:1002200050917A0160917B0170917C01841B950B48
:10023000A60BB70B40917501509176016091770143
:100240007091780184179507A607B707B0F28FEF72
:100250009FEF0895FC01918D228D892F90E0805CA5
:100260009F4F821B91098F739927089581E791E031
:100270000E942A0121E0892B09F420E0822F0895B1
:1002800080E090E0892B29F00E94360181110C94C6
:1002900000000895FC01A48DA80FB92FB11DA35A29
:1002A000BF4F2C91848D90E001968F739927848F96
:1002B000A689B7892C93A089B1898C9183708064B9
:1002C0008C93938D848D981306C00288F389E02D5A
:1002D00080818F7D80830895EF92FF920F931F930B
:1002E000CF93DF93EC0181E0888F9B8D8C8D9813E9
:1002F0001AC0E889F989808185FF15C09FB7F894F5
:10030000EE89FF896083E889F98980818370806440
:1003100080839FBF81E090E0DF91CF911F910F918B
:10032000FF90EF900895F62E0B8D10E00F5F1F4F9A
:100330000F731127E02E8C8D8E110CC00FB607FCA9
:10034000FACFE889F989808185FFF5CFCE010E9437
:100350004A01F1CFEB8DEC0FFD2FF11DE35AFF4F5A
:10036000F0829FB7F8940B8FEA89FB8980818062C5
:10037000CFCFCF93DF93EC01888D8823B9F0AA8982
:10038000BB89E889F9898C9185FD03C0808186FD50
:100390000DC00FB607FCF7CF8C9185FFF2CF80819F
:1003A00085FFEDCFCE010E944A01E9CFDF91CF91C9
:1003B0000895833081F028F4813099F08230A9F0DB
:1003C00008958730A9F08830C9F08430B1F4809165
:1003D00080008F7D03C0809180008F7780938000A4
:1003E000089584B58F7784BD089584B58F7DFBCF44
:1003F0008091B0008F778093B00008958091B00015
:100400008F7DF9CFCF93DF93282F30E0F901E255AC
:10041000FF4F8491F901E656FF4FD491F901EA5755
:10042000FF4FC491CC23A1F081110E94D901EC2F80
:10043000F0E0EE0FFF1FE458FF4FA591B491EC914F
:10044000ED2381E090E009F480E0DF91CF91089501
:1004500080E090E0FACF1F93CF93DF93282F30E016
:10046000F901E255FF4F8491F901E656FF4FD4910F
:10047000F901EA57FF4FC491CC23A9F0162F81113F
:100480000E94D901EC2FF0E0EE0FFF1FEE58FF4F56
:10049000A591B4918FB7F894EC91111108C0D09543
:1004A000DE23DC938FBFDF91CF911F910895DE2B68
:1004B000F8CFCF93DF9390E0FC01E656FF4F2491F5
:1004C0008A579F4FFC0184918823D1F090E0880FD8
:1004D000991FFC01E859FF4FA591B491FC01EE581A
:1004E000FF4FC591D49161110EC09FB7F8948C91C4
:1004F000E22FE0958E238C932881E223E8839FBF2F
:10050000DF91CF9108958FB7F894EC91E22BEC93A3
:100510008FBFF6CF3FB7F89480915F019091600153
:10052000A0916101B091620126B5A89B05C02F3F43
:1005300019F00196A11DB11D3FBFBA2FA92F982F09
:100540008827BC01CD01620F711D811D911D42E004
:10055000660F771F881F991F4A95D1F70895FC01F0
:1005600001900020E9F73197AF01481B590BBC01FE
:1005700081E791E00C948C008F929F92AF92BF9292
:100580000F931F93CF93DF93CDB7DEB7A1970FB62D
:10059000F894DEBF0FBECDBF19A2423008F44AE086
:1005A0008E010F5D1F4F842E912CB12CA12CA50123
:1005B00094010E94CC05E62FB901CA01EA30F4F497
:1005C000E05DD801EE938D01232B242B252B79F7A9
:1005D00090E080E0109719F0CD010E94AF02A19643
:1005E0000FB6F894DEBF0FBECDBFDF91CF911F9144
:1005F0000F91BF90AF909F908F900895E95CE1CFED
:100600008CE00E940202892B41F461E089E00E94A3
:100610002B0260E089E00C942B020895CF93DF93C6
:10062000BC01990F880B990B4AE00E94BC02EC01B7
:1006300088E191E00E94AF028C0F9D1FDF91CF9166
:1006400008951F920F920FB60F9211242F933F938C
:100650004F935F936F937F938F939F93AF93BF93CA
:10066000EF93FF9381E791E00E944A01FF91EF91A0
:10067000BF91AF919F918F917F916F915F914F91BA
:100680003F912F910F900FBE0F901F9018951F92C2
:100690000F920FB60F9211242F938F939F93EF9386
:1006A000FF93E0918101F09182018081E0918701C7
:1006B000F091880182FD1BC0908180918A018F5F3B
:1006C0008F7320918B01821741F0E0918A01F0E055
:1006D000EF58FE4F958F80938A01FF91EF919F9184
:1006E0008F912F910F900FBE0F901F9018958081C2
:1006F000F4CF1F920F920FB60F9211242F933F93B6
:100700008F939F93AF93BF9380916D0190916E01F2
:10071000A0916F01B091700130915E0123E0230F31
:100720002D3758F50196A11DB11D20935E018093D0
:100730006D0190936E01A0936F01B0937001809151
:100740005F0190916001A0916101B09162010196F9
:10075000A11DB11D80935F0190936001A093610181
:10076000B0936201BF91AF919F918F913F912F9173
:100770000F900FBE0F901F90189526E8230F02963A
:10078000A11DB11DD2CF789484B5826084BD84B59B
:10079000816084BD85B5826085BD85B5816085BD7C
:1007A00080916E00816080936E0010928100809134
:1007B00081008260809381008091810081608093BC
:1007C0008100809180008160809380008091B100E1
:1007D00084608093B1008091B00081608093B0000C
:1007E00080917A00846080937A0080917A008260A0
:1007F00080937A0080917A00816080937A00809162
:100800007A00806880937A001092C100E0918101A3
:10081000F091820182E08083E0917D01F0917E0180
:100820001082E0917F01F091800187E08083109237
:100830008901E0918501F091860186E08083E09155
:100840008301F0918401808180618083E091830144
:10085000F0918401808188608083E0918301F09130
:100860008401808180688083E0918301F09184011C
:1008700080818F7D80838BE191E00E94AF0288E1CF
:1008800091E00E94AF0261E089E00E94590260E0BD
:100890008BE00E94590260E08CE00E94590260E007
:1008A00089E00E942B0211E0C0E0D0E0BB24B394A9
:1008B00081E791E00E942A01892B09F472C00E940D
:1008C000EA00FC0197FD1BC18D32910521F0C09714
:1008D0000A9708F00DC1C12CD12C760100E0E1305F
:1008E000F105D9F0ED32F10509F407C1CF01C09748
:1008F0000A9798F4AAE0B0E0A70196010E94B20519
:100900006F01FF0FEE08FF08C60ED71EE81EF91E86
:1009100020E3C21AD108E108F10881E791E00E94C2
:10092000C8000E94EA00FC01C0970A97C0F2E130BB
:10093000F105A9F2002341F0F094E094D094C09422
:10094000C11CD11CE11CF11CC0920201D092030118
:10095000E0920401F09205010E948A022B013C0101
:1009600088EEC82E83E0D82EE12CF12C0E948A025A
:100970006419750986099709683E734081059105D8
:10098000A8F381E0C81AD108E108F10828EE420E68
:1009900023E0521E611C711CC114D104E104F10456
:1009A00029F74091690150916A0160916B01709142
:1009B0006C018091020190910301A0910401B0911A
:1009C0000501481759076A077B07C0F080910101AC
:1009D000882309F498C080910001882309F493C00A
:1009E0000E94000361E08DE00E942B0210926901D9
:1009F00010926A0110926B0110926C018BE00E94C0
:100A0000020221E0009709F420E00097A1F0409154
:100A100065015091660160916701709168014F5FB7
:100A20005F4F6F4F7F4F4093650150936601609316
:100A300067017093680130916401231709F12093D5
:100A40006401009711F0B0926301209163012223A9
:100A5000B9F0892BA9F480910001811102C00E9494
:100A600000031092630110926501109266011092CA
:100A70006701109268018091010181278093010133
:100A80008091650190916601A0916701B091680124
:100A900081349D40A340B10568F080910001812719
:100AA0008093000110926501109266011092670117
:100AB000109268018091690190916A01A0916B0187
:100AC000B0916C010196A11DB11D809369019093B5
:100AD0006A01A0936B01B0936C01209709F4E8CEF2
:100AE0000E943601882309F4E3CE0E940000E0CE84
:100AF00081E791E00E94C800E2CE01E00ECFC12C58
:100B0000D12C760121CF60E06ECFE1E7F1E01382D6
:100B1000128288EE93E0A0E0B0E084839583A68300
:100B2000B7838AE091E09183808385EC90E095879C
:100B3000848784EC90E09787868780EC90E0918BA7
:100B4000808B81EC90E0938B828B82EC90E0958B94
:100B5000848B86EC90E0978B868B118E128E138E91
:100B6000148E08950E94BD05A59F900DB49F900D11
:100B7000A49F800D911D11240895A29FB001B39FE1
:100B8000C001A39F700D811D1124911DB29F700D96
:100B9000811D1124911D0895A1E21A2EAA1BBB1BD1
:100BA000FD010DC0AA1FBB1FEE1FFF1FA217B30739
:100BB000E407F50720F0A21BB30BE40BF50B661F4F
:100BC000771F881F991F1A9469F760957095809513
:100BD00090959B01AC01BD01CF010895EE0FFF1F61
:0C0BE0000590F491E02D0994F894FFCFEB
:100BEC00010103000000000000006C018C00B90042
:100BFC00B9012A01C800DC000D0A00456E7465724B
:100C0C0020436C6F636B20737465702069676E6F23
:100C1C00726520286C6F7765722076616C75652023
:100C2C00666F722068696768657220636C6F636BAE
:0E0C3C00206672657175656E6379293A200035
:00000001FF
